:020000040800F2
:10000000B0060020050100083B1A0008791400081A
:10001000391A0008F7030008C91E00080000000094
:10002000000000000000000000000000791D000832
:100030002904000800000000A51C00087B1D000822
:100040001F0100081F0100081F0100081F01000810
:100050001F0100081F0100081F0100081F01000800
:100060002B0400081F0100081F0100081F010008E1
:100070001F0100081F0100081F0100081F010008E0
:100080001F0100081F0100081F0100081F010008D0
:100090001F0100081F0100081F0100081F010008C0
:1000A0001F0100081F0100081F0100081F010008B0
:1000B0001F0100081F0100081F0100081F010008A0
:1000C0001F0100081F0100081F0100081F01000890
:1000D0001F010008AD1E00081F0100081F010008D5
:1000E0001F0100081F0100081F010008DFF810D0E1
:1000F00000F044F9004800473D220008AFF30080BB
:10010000B00600200648804706480047FEE7FEE7A5
:10011000FEE7FEE7FEE7FEE7FEE7FEE7FEE7FEE7B7
:10012000DD1D0008ED000008D2B201E000F8012B4F
:10013000491EFBD270470022F6E710B513460A4667
:1001400004461946FFF7F0FF204610BDF0B480EAE0
:100150000102D40F4200B2EB410F02D20246084620
:1001600011464A0042D0C30DDDB2C1F3C752AD1AE9
:10017000202D35DAC1F3160141F4000204B15242D8
:10018000C5F1200602FA06F12A411044B3EBD05F14
:1001900023D0C4B1012DA0EBC35009DCF0BC4FF05B
:1001A000004202EAC352DBB200F5000000F0B8B82A
:1001B000400000F1807000EBC350A0F1807040EA75
:1001C000D170490009E0490841EAC071A0EBC35071
:1001D00000F50000400800EBC350F0BC00F097B8F9
:1001E0006142012202EB4101001BF6E7F0BC7047BF
:1001F00081F00041AAE780F00040A7E780EA010211
:1002000010B502F00043400022D04A001FD0010E7A
:1002100001EB1261C0F35600C2F3560240F4000035
:1002200042F40002A0FB022000047F39140400D035
:10023000401C50EA124001D44000491EC2B20C06D4
:1002400004EBD010401C4008802A02D003E00020BC
:1002500010BD20F00100002900DA0020184310BD75
:1002600030B480EA010202F0004530F0004221F093
:10027000004013D090B1C30DD40DC2F31601C0F3EA
:100280001600E41A41F4000140F400027D3491426A
:1002900001D3641C00E04900002C02DA30BC0020CD
:1002A00070474FF400000023914201D3891A0343A1
:1002B00040084FEA4101F7D151B1914202D14FF0CC
:1002C000004105E002D24FF0010101E06FF00101B1
:1002D00003EBC450284430BC00F019B89623002228
:1002E000114600F01DB820F00040C10DC0F316000B
:1002F00040F400007F2901DA00207047962903DCD2
:10030000C1F19601C840704796398840704700296E
:10031000A8BF7047401C490008BF20F0010070478B
:1003200010B4B0FA80FC00FA0CF050EA010404BFEB
:1003300010BC704749B1CCF1200421FA04F411FA41
:100340000CF118BF012121430843A3EB0C01CB1D85
:100350004FEA00614FEA102042BF002010BC7047F6
:1003600000EBC35010440029A4BF10BC7047401CD0
:10037000490008BF20F0010010BC7047064C074D33
:1003800006E0E06840F0010394E807009847103465
:10039000AC42F6D3FFF7AEFE4830000868300008E4
:1003A00070B58C1810F8015B15F0070301D110F837
:1003B000013B2A1106D110F8012B03E010F8016B64
:1003C00001F8016B5B1EF9D12B0705D40023521EE7
:1003D0000DD401F8013BFAE710F8013BCB1A921C4F
:1003E00003E013F8015B01F8015B521EF9D5A1424D
:1003F000D8D3002070BDFEE730B503460022084682
:100400003124995C48400021050602D584EA400069
:1004100000E04000491CC9B2C0B20829F4D3521C04
:10042000D2B2022AEDD330BD7047042000F020B8CC
:1004300072B6FEE770B5044600F024F90546601C6C
:1004400002D004480078044400F01CF9401BA0428C
:10045000FAD370BD3401002010B5042806D10A205B
:10046000FFF7E8FFBDE8104002F036B810BD00000D
:10047000044910B50A68024202D00860FFF7ECFF99
:1004800010BD0000140401402DE9F84FDFF8B891C9
:10049000002409F1040A0AF1040B23460F270BF18B
:1004A000040EC9E00125A5402A40AA427DD1674E2D
:1004B000D1F804C0ACEB0608B44532D014DCBCF172
:1004C000030F3AD009DCBCF1000F2AD0BCF1010FB8
:1004D0001CD0BCF1020F31D11DE0BCF1110F17D0BF
:1004E000BCF1120F2AD119E0B8F5881F19D006DC2B
:1004F000B8F5803F15D0B8F5801F1FD111E0B8F5D1
:10050000001F0ED0B8F5041F18D10AE0CB6815E023
:10051000CB681B1D12E0CB6808330FE0CB680C33AF
:100520000CE08B682BB1012B4FF0080303D0456121
:1005300004E0042302E0056100E00023FF2A01D863
:10054000064601E000F104064FEA840501D9A5F151
:100550002005D6F8008007FA05FC28EA0C0803FA03
:1005600005F548EA0508C6F800804D68ED0062D53B
:10057000374DAE6946F00106AE61AD6924F0030661
:1005800005F001050095334D06EB050CDCF808502D
:10059000A607360F07FA06F825EA0805DFF8B8803F
:1005A000404503D14FF0000817E044E0DFF8AC808D
:1005B000404502D14FF001080FE0DFF8A48040452C
:1005C00002D14FF0020808E0DFF89880404502D1E0
:1005D0004FF0030801E04FF0040808FA06F848EA73
:1005E0000508CCF808804D68D9F80060ED034D4649
:1005F00001D5164300E096432E604D68DAF800609E
:10060000AD03554601D5164300E096432E604D6874
:10061000DBF80060ED025D4601D5164300E096432D
:100620002E604D68DEF80060AD02754601D51643B8
:1006300000E096432E60641C0D682A46E5407FF476
:1006400031AFBDE8F88F0000000401400000111038
:10065000001002400000014000080140000C014071
:100660000010014000140140C26821EA02030A4060
:1006700043EA0241016170470AB101617047090410
:10068000FBE700000148806870470000340100204B
:1006900070B5040025D094F83D00002520B984F8F9
:1006A0003C50204600F008FB242084F83D002068E0
:1006B000016821F0010101602068016841F40041F6
:1006C00001602068016821F40041016000F068FCCD
:1006D0004D4A6168914201D84C4900E04C4988423A
:1006E00001D2012070BD4B492368B0FBF1F15E6877
:1006F00026F03F060E435E606368934206D94FF4CE
:10070000967359434FF47A73B1FBF3F12368491C94
:100710001E6A26F03F06314319626168914210D883
:100720004900401EB0FBF1F2521CC2F30B02042A36
:1007300001D2042022E0B0FBF1F0401CC0F30B001A
:100740001CE0A268F2B301EBC10303EB0116431EE8
:10075000B3FBF6F35B1C43F480431B0549D092B313
:1007600001EBC10202EB0111401EB0FBF1F0401C95
:10077000C0F30B0040F4804040F400402168CA6997
:100780004CF6FF739A431043C861D4E90710014344
:100790002068026822F0C00211430160D4E903011D
:1007A00001432068826848F2FF339A431143816015
:1007B000D4E9050108432168CA6822F0FF0210430A
:1007C000C86001E00EE016E02068016841F0010118
:1007D00001602564202084F83D00256384F83E50A4
:1007E000002070BD01EB4106431EB3FBF6F35B1C1A
:1007F000B3E70120C2E701EB4101401EB0FBF1F07D
:10080000401CC0F30B00B7E7A086010080841E00E7
:1008100000093D0040420F002DE9F84F0025DDF8AA
:100820002890984617468A4604460095FFF72AFF07
:10083000064694F83D0020287AD1192301228349E5
:100840002046009600F06EFF0028F5D194F83C0099
:1008500001286DD0012084F83C0020680168C90798
:1008600003D1016841F0010101602068016821F4B1
:1008700000610160222084F83D00102084F83E00D1
:1008800025646762A4F82A80608D20857048E06244
:1008900033464A465146204600F006FE00287DD1E8
:1008A000208DDFF8B081202768B1012814D00228FC
:1008B000206801681ED041F48061016020684169B0
:1008C00080690090B5E02068416981690091016804
:1008D00041F400710160ACE02068016821F480619E
:1008E000016072B62068416981690091016841F434
:1008F00000710AE041F40061016072B6206841694C
:1009000081690091016821F48061016062B690E024
:10091000032868D801280CD002284B464FF000026B
:100920004146204600960FD000F0FCFEB0BB10E020
:100930008AE032464946204600F073FF70BB2068CB
:100940000069616A08706BE000F0ECFE30BB72B6C3
:1009500034E02068016821F48061016072B620688B
:100960000069616A0870606A401C6062208D401EE8
:100970002085608D401E6085374846F2A8110068CA
:10098000B0FBF1F0C0EBC00000EB80000090401E17
:10099000009008D020684069C04300E029E040078B
:1009A0000CD50098F3E744F8305F6773A5732069AE
:1009B00040F02000206162B625731AE020680168CB
:1009C00041F40071016020680069616A0870606A22
:1009D000401C6062218D491E2185618D491E618503
:1009E00062B621681AE032464946204600F019FFF7
:1009F00010B10120BDE8F88F20680069616A0870B5
:100A0000606A401C6062218D491E2185618D491EEE
:100A1000618521684A69D24352070AD40969017085
:100A2000606A401C6062208D401E2085608D401EE3
:100A30006085208D00287FF46BAF84F83D7084F8CA
:100A40003E5084F83C50D5E70220D3E70200100066
:100A50000000FFFF04000100400100202DE9F84FD5
:100A60001F4690468A460446DDF82890FFF70AFEA6
:100A7000054694F83D0020287FD1192301224049E2
:100A80002046009500F04EFE002876D194F83C00F8
:100A9000012872D0012084F83C0020680168C90751
:100AA00003D1016841F0010101602068016821F46F
:100AB00000610160212084F83D00102084F83E0090
:100AC00000262664C4F824806785608D20852D4823
:100AD000E0622B464A465146204600F05BFD90B945
:100AE000206841698069009036E02A4649462046E0
:100AF00000F0CAFE50B1206C042804D120680168BF
:100B000041F4007101600120BDE8F88F606A21683E
:100B100000780861606A401C6062618D491E6185D1
:100B2000218D491E89B2218522685369DB435B0709
:100B30000BD451B100781061606A401C6062608D16
:100B4000401E6085208D401E20852A46494620464D
:100B500000F0C2FD0028CED1208D0028C5D154F868
:100B60003D0B016841F400710160202004F81E096A
:100B7000E67766770020C7E7FFE70220C4E70000BA
:100B8000020010000000FFFF2DE9FF4F83B09A46DE
:100B9000DDE9119793460446DDF84080FFF772FDCA
:100BA000054694F83D0020287FD1192301224049B1
:100BB0002046009500F0B6FD002876D194F83C0060
:100BC000012872D0012084F83C0020680168C90720
:100BD00003D1016841F0010101602068016821F43E
:100BE00000610160212084F83D00402084F83E002F
:100BF00000262664C4F82480A4F82A90608D2085FD
:100C00002C48E062CDE9007553465A4620460499C7
:100C100000F00EFD70B930E02A463946204600F05B
:100C200033FE58B1206C042804D12068016841F4D7
:100C300000710160012007B0BDE8F08F606A216893
:100C400000780861606A401C6062218D491E89B28B
:100C50002185628D521E628522685369DB435B07E2
:100C60000BD469B100781061606A401C6062208D0D
:100C7000401E2085608D401E6085208D0028CBD1D0
:100C80002A463946204600F027FD0028CAD154F8EC
:100C90003D0B016841F400710160202004F81E0939
:100CA000E67766770020C6E7FFE70220C3E700008B
:100CB000020010000000FFFF30B585B00021009158
:100CC0000191029103911B4D04681B4912220323D9
:100CD0001A48AC4211D1CC6944F40014CC61CC69FF
:100CE00004F4001404948C6944F008048C6189694C
:100CF00001F008010491C02114E0114DAC4217D15C
:100D0000CC6944F48004CC61CC6904F4800404947C
:100D10008C6944F008048C61896901F00801049130
:100D20004FF44061CDE9001203936946FFF7ACFB35
:100D300005B030BD0054004000100240000C0140DE
:100D40000058004002488168027811448160704771
:100D500034010020074810B5016841F0100101601E
:100D6000032000F075F8002000F006F800F024F8E9
:100D7000002010BD0020024070B50D4D04464FF418
:100D80007A712878B1FBF0F00A490968B1FBF0F0FC
:100D900000F0ECFA48B9102C07D200222146501E70
:100DA00000F036F800206C6070BD012070BD0000BE
:100DB00034010020400100200C4808B5816941F051
:100DC00001018161816901F001010091C16941F076
:100DD0008051C161C06900F08050009004484168B2
:100DE00021F0E06141F00071416008BD0010024057
:100DF00000000140002809DB00F01F0201219140A2
:100E00004009800000F1E020C0F8001170470000A8
:100E1000F0B40E4B1B680C46C3F30223C3F1070565
:100E2000042D00D90425191D072901D2002300E053
:100E3000DB1E012606FA05F1491E214099409E401D
:100E4000761E16403143F0BC01F05AB80CED00E0BC
:100E5000064900F0070208684FF6FF03184040EA11
:100E60000220034A10430860704700000CED00E0C8
:100E70000000FA052DE9F0470F46050061D0434E0A
:100E8000306800F00700B84209D2306820F007004F
:100E900038433060306800F00700B84251D128680C
:100EA0003B4C810712D5400703D5606840F4E060F1
:100EB00060602878000703D5606840F46050606087
:100EC0006068A96820F0F000084360602878C007D7
:100ED00028D06868012810D02168022810D089071E
:100EE00000292EDA616821F0030101436160FFF7F8
:100EF000C9FB804641F288390DE021688903EFE79C
:100F00008901EDE7FFF7BEFBA0EB0801494502D9D7
:100F10000320BDE8F0876068696800F00C00B0EB62
:100F2000810FEFD1306800F00700B8420BD930686C
:100F300020F0070038433060306800F00700B84206
:100F400001D00120E5E72878400705D56068E96809
:100F500020F4E060084360602878000706D56068E8
:100F6000296920F4605040EAC100606000F038F860
:100F70006168084AC1F30311515CC8400649086022
:100F800006480068FFF7F8FE0020C2E70020024094
:100F90000010024004300008400100203801002009
:100FA0000448054900684968044AC1F30221515CBC
:100FB000C840704740010020001002401430000873
:100FC0000448054900684968044AC1F3C221515CDC
:100FD000C840704740010020001002401430000853
:100FE00012A185B00FC98DE80F0014A0144A006843
:100FF00004905168134801F00C03042B10D0082B07
:101000000ED1C1F38343C9031DF803000AD551680B
:1010100004AAC1F34041515C0A4A5043B0FBF1F0CD
:1010200005B0704708494843FAE700000203040589
:10103000060708090A0B0C0D0E0F10100102000024
:101040000010024000127A0000093D002DE9F84F1F
:10105000040070D02078C04DC00749D06868C0F344
:101060008100012807D06868C0F38100022809D1F7
:101070006868C00306D52868800339D560680028F1
:10108000E7D035E06068B0F5803F0BD010B1B0F527
:10109000A02F11D0286820F480302860286820F420
:1010A000802002E0286840F480302860606890B1B9
:1010B000FFF7E8FA06460AE0286840F48020286036
:1010C000F0E700BFFFF7DEFA801B642873D82868BA
:1010D0008003F7D50CE0FFF7D5FA064605E000BF20
:1010E000FFF7D0FA801B6428F0D828688003F7D473
:1010F00020789A4E80074FF001094FF0000839D54B
:10110000686810F00C0F07D06868C0F381000228EF
:1011100009D16868C00306D42868800714D52069FF
:10112000012808D110E02069B0B1C6F80090FFF79F
:10113000A9FA074605E00AE1FFF7A4FAC01B022856
:10114000C4D828688007F7D52868616920F0F800BE
:1011500040EAC10028600DE0C6F80080FFF792FA6F
:10116000074604E0FFF78EFAC01B022823D8286840
:101170008007F7D4207800072CD57948A169D9B128
:10118000C0F80090FFF77EFA074604E0FFF77AFA0E
:10119000C01B02280FD8686A8007F7D571484FF442
:1011A000FA510068B0FBF1F0009000BF0098411EBA
:1011B0000091FAD20EE080E0C0F80080FFF762FAFA
:1011C000074604E0FFF75EFAC01B022875D8686A7C
:1011D0008007F7D42078400760D5E8690027C00071
:1011E00008D4E86940F08050E861E869012700F020
:1011F000805000905C480168C90513D4016883469B
:1012000041F480710160FFF73DFA824606E000BFBD
:10121000FFF738FAA0EB0A0064284ED8DBF800008C
:10122000C005F5D5E06801280AD008B1052813D01B
:10123000286A20F001002862286A20F0040002E0F9
:10124000286A40F001002862E06841F2883B98B1CA
:10125000FFF718FA82460BE0286A40F00400286283
:10126000EEE700BFFFF70EFAA0EB0A0159455AD886
:10127000286A8007F6D50CE0FFF704FA824605E0FD
:10128000FFF700FAA0EB0A0159454CD8286A8007FD
:10129000F6D41FB1E86920F08050E861E06988B3B6
:1012A0006968C1F38101022944D00228C6F8608030
:1012B00004D0FFF7E7F9044638E034E0FFF7E2F93D
:1012C000074604E0FFF7DEF9C01B02282BD8286888
:1012D0008001F7D4206AB0F5803F05D16868A16825
:1012E00020F4003008436860D4E9080108436968C5
:1012F00021F4741108436860C6F86090FFF7C2F9E2
:10130000044606E025E000BFFFF7BCF9001B0228F9
:1013100009D828688001F7D51BE000BFFFF7B2F9B4
:10132000001B022802D90320BDE8F88F286880013D
:10133000F4D40EE00128F7D06868226A00F4803106
:10134000914204D1616A00F47010884201D00120FA
:10135000EAE70020E8E700000010024000004242F7
:1013600080044242400100200070004010B5401E41
:10137000B0F1807F01D3012010BD4FF0E024606107
:101380000F21601700F0BCFD0020A0610720206144
:10139000002010BD70B5040004D094F83900002579
:1013A00010B106E0012070BD84F83850204600F0EE
:1013B00023F8242084F839002068C16821F4005102
:1013C000C160204600F016FD2068016921F49041BB
:1013D00001612068416921F02A0141612068C168EA
:1013E00041F40051C160E563202084F8390084F89D
:1013F0003A00002070BD000030B585B00024009494
:101400000194029403940068184988422CD118482A
:10141000816941F480418161816901F480410491D5
:10142000816941F0040181618069124D00F004007E
:1014300004904FF40070009002200190032003906C
:1014400069462846FFF720F82815CDE900046946CB
:1014500028460294FFF718F8002211462520FFF7CE
:10146000D7FC2520FFF7C6FC05B030BD0038014091
:101470000010024000080140FEE701684A69D243BB
:1014800052050FD46FF480624A61002140F8301F8A
:10149000202242738173026942F0040202610173E7
:1014A00001207047002070472DE9F84F0446C06ABC
:1014B0001E4693460D4621680A6842F480620A601F
:1014C000082807D0012805D010F5803F02D0206BF6
:1014D000112804D12068016841F4807101604FF047
:1014E00001195B46002249462046009600F01AF991
:1014F0004FF4007840B120680068C00501D5C4F8F9
:1015000040800320BDE8F88F2069DFF884A0B0F5A3
:10151000804F0FD00620216800EAD51747F0F00071
:10152000086133465A460AF10601204600F02EF9BA
:1015300058BB03E0E8B240F001001CE02168E8B2CB
:10154000086133465A465146204600F01FF9E0B97B
:101550002068416981690091016841F480710160EE
:101560005B46002249462046009600F0DBF8002842
:10157000C1D147F0F1002168086133465A4651460F
:10158000204600F003F90028BCD00120BAE7000093
:1015900002000100F8B50446C06A1E460D46174613
:1015A000082807D0012805D010F5803F02D0206B15
:1015B000122804D12068016841F48071016013464B
:1015C00000224FF001112046009600F0ABF840B128
:1015D00020680068C00502D54FF400702064032025
:1015E000F8BD2069B0F5804F0ED00620216800EAD2
:1015F000D51040F0F000086133463A460B492046CA
:1016000000F0C4F878B902E005F0FE0000E0E8B2AE
:1016100021680861054933463A46891F204600F093
:10162000B5F80028DCD00120F8BD0000080001005A
:101630002DE9F843044600680D46DDE90897016886
:101640009846164641F4807101604B4600224FF0E7
:1016500001112046009700F065F848B12068006845
:10166000C00502D54FF4007020640320BDE8F88364
:10167000216805F0FE0008613B464A4615492046B0
:1016800000F084F888B920684169806900903A4682
:101690004946204600F0F8F848B1206C042804D1EF
:1016A0002068016841F4007101600120DEE7F5B2B5
:1016B000B8F1010F09D02168300A08613A4649465D
:1016C000204600F0E1F80028E7D1206805610020FD
:1016D000CCE700000200010070B516460D46044636
:1016E0000DE02046FFF7C9FE08B1012070BD681C5F
:1016F00005D0FEF7C7FF801BA84207D835B1206888
:101700004069C0434007ECD4002070BD002044F87D
:10171000300F20216173A073216941F02001216104
:101720002073E2E72DE9F0471E4690460D46044639
:10173000C1F30747DDF8209008E0701C06D0FEF7E3
:10174000A1FFA0EB0900B0420FD876B12068012FAD
:1017500018D0806925EA00000004000C14D0002194
:101760004145EAD00020BDE8F087002044F8300F62
:1017700020216173A073216941F020012161207350
:101780000120F0E74069E5E70121E9E72DE9F047AD
:101790009A4691460E46044600254FF02008C1F3B4
:1017A000074725E020684069C043400514D42068FD
:1017B000016841F40071016021686FF48060486144
:1017C000256384F83D8084F83E50206C40F004008E
:1017D000206484F83C501FE0B9F1FF3F08D0FEF7C9
:1017E00051FFA0EB0A0149450CD8B9F1000F09D00F
:1017F0002068012F13D0806926EA00000004000C45
:101800000BD0CFE744F8305F84F80D80A5732069D2
:1018100040F02000206125730120BDE8F087406979
:10182000EAE72DE9F041002590460E4604462027C0
:1018300017E04069C043C0060CD454F8301B6FF069
:101840001000486144F810596777A577206A206234
:10185000257717E0FEF716FFA0EB0800B04208D886
:101860003EB120684169C9434906E2D40020BDE881
:10187000F08144F8305F6773A573206940F0200061
:10188000206125730120F2E770B516460D46044627
:101890000DE02046FFF7F1FD08B1012070BD681C86
:1018A00005D0FEF7EFFE801BA84207D835B12068AF
:1018B0004069C0430006ECD4002070BD002044F80D
:1018C000300F20216173A073216941F02001216153
:1018D0002073E2E770B586B0002426480094019496
:1018E00002940394816941F020018161816901F0D2
:1018F00020010491816941F004018161816901F055
:1019000004010491816941F00801816180691A4EE6
:1019100000F008000490012202213046FEF7ACFEE0
:10192000002208213046FEF7A7FE0125CDE900542C
:10193000694630460294FEF7A7FD0A20CDE900056E
:101940000220CDE9024069463046FEF79DFD0420A5
:1019500000900A48CDE9010469463046FEF794FD3F
:10196000002211460820FFF753FA0820FFF742FA39
:1019700006B070BD001002400008014000002110B8
:101980000D4810B50B4901600C49416000214FF42E
:1019900080428160C0E9031241618161C1610162DD
:1019A000FEF776FE002803D0BDE81040FEF740BDEC
:1019B00010BD00000054004058010020A086010026
:1019C0000D4810B50B4901600C49416000214FF4EE
:1019D00080428160C0E9031241618161C16101629D
:1019E000FEF756FE002803D0BDE81040FEF720BDEC
:1019F00010BD000000580040AC010020A08601008E
:101A00000C4810B50A4901604FF4E13141600021F2
:101A100081600C22C160C0E904128161C161FFF7DD
:101A2000B9FC002803D0BDE81040FEF701BD10BD91
:101A30000038014000020020FEE7FEE770B50024F8
:101A400004F1B000C0B200F009F9002000F006F97E
:101A5000102000F003F90025002000F011F96D1CA2
:101A6000EDB2802DF8D3641CE4B2082CE8D370BD2D
:101A700010B5C820FEF7DEFCBDE8104000F026BA25
:101A800010B50446B031C8B200F0E8F8102040EAC2
:101A9000141000F0E3F804F00F00BDE8104000F06F
:101AA000DDB800002DE9F05FDFF884901F46904616
:101AB0008A468346002500BFC5EBC50000EB8001C8
:101AC00098F8002019F8013093422BD101EB090658
:101AD00098F801007178814224D151465846FFF7A9
:101AE000CFFF002406EB0400C0780FB1C043C0B2A2
:101AF00000F0C6F8641CE4B2102CF3D30AF1010024
:101B0000C1B25846FFF7BCFF5FF0000406EB0400CB
:101B1000C07C0FB1C043C0B200F0B2F8641CE4B2A4
:101B2000102CF3D36D1CADB2082DC5D3BDE8F09FCA
:101B3000000000202DE9F041203A00240D468046A7
:101B4000D6B27F2803D900208D1C8046EDB2102B21
:101B500029460FD0FFF794FF164906EB460001EB2C
:101B60004005285D00F08CF8641CE4B2062CF8D324
:101B7000BDE8F081FFF784FF0F4F00BF04EB0610B4
:101B8000385C00F07DF8641CE4B2082CF6D36D1CC0
:101B9000E9B24046FFF774FF5FF0000404EB061063
:101BA0003844007A00F06CF8641CE4B2082CF5D3D9
:101BB000DEE70000EC270008142A00082DE9F05F9A
:101BC0000026DDF828901D4692468B468046344616
:101BD0004FEA590723E0281B401EC1B20A2000F03B
:101BE000AEFCBAFBF0F00A21B0FBF1F201FB1200EF
:101BF00026B9691E8C4201DA38B101263030C2B2F2
:101C000007FB0480C0B24B4604E007FB0480C0B26F
:101C10004B4620225946FFF78DFF641CE4B2AC42CC
:101C2000D9D3BDE8F09F2DE9F041984617460E46FE
:101C3000044600250DE0434631462046FFF77AFF73
:101C40000834E4B2782C02D90024B61CF6B26D1C1C
:101C5000EDB27A5D002AEED1BDE8F08101B584B025
:101C600001214FF4807204A88DE807000B46002282
:101C700078210248FEF788FF05B000BDAC010020C6
:101C800001B584B001214FF4807204A88DE80700EB
:101C90000B46402278210248FEF776FF05B000BDD2
:101CA000AC010020704700002DE9F0410E461546BA
:101CB0000446FF21FEF7A0FBA178884206D1FF2150
:101CC000E01CFEF799FB6179884202D00120BDE853
:101CD000F081208840BAFEF701FB0C4F3946FEF731
:101CE000BFFA0B49FEF78AFA0A49FEF72FFA30606D
:101CF000B4F8030040BAFEF7F1FA3946FEF7B0FA3D
:101D00000549FEF77BFA28600020E0E700FF7F47E7
:101D100000002F43000034C20000C84238B504461A
:101D20004FF4604000F016F84FF6FF700090062365
:101D3000224689210148FEF76FFD38BD5801002079
:101D400010B543F2A20000F005F8BDE810401420E1
:101D5000FEF770BB1CB5010A8DF804108DF8050064
:101D60004FF6FF700090022301AA88210148FEF778
:101D700075FE1CBD580100207047FEF7E3BF30B56B
:101D80008FB028216846FEF7D6F914210AA8FEF77D
:101D9000D2F901210804CDE90010002402940225A3
:101DA0000491CDE907504FF4E01009906846FFF721
:101DB0004DF908B172B6FEE70F20CDE90A054FF4E0
:101DC0008060CDE90C4002210AA80E94FFF752F87A
:101DD000002801D072B6FEE70FB030BD704700009A
:101DE00003490A681206FCD50149091D08607047BD
:101DF0000038014070B5044600680169E26821F4CA
:101E00004051114301612169A06808436169084399
:101E10002168CA6841F20C639A430243CA60206891
:101E20004169A26921F44071114341611E49206852
:101E3000884202D1FFF7C4F801E0FFF7B1F800EBE8
:101E4000C00101EB0012606864218000B2FBF0F376
:101E5000B3FBF1F36FF018067343B2FBF0F5B2FB7E
:101E6000F0F605EB8305322303EB0515B5FBF1F521
:101E7000B6FBF1F605F0F00505EB0615B2FBF0F642
:101E8000B2FBF0F0B0FBF1F06FF01802504306EB3C
:101E9000800003EB0010B0FBF1F0216800F00F00B0
:101EA0002844886070BD0000003801400548006883
:101EB000800605D50348001D0068C0B200F0D8BBFD
:101EC0007047000000380140FEE70000FEB5002426
:101ED000094F4FF4807501263819CDE9000601231A
:101EE0000022782102950548FEF74EFE641CE4B2FC
:101EF0001B2CF1D3FEBD000018010020AC01002016
:101F00000907090E002804DB00F1E02080F8001426
:101F1000704700F00F0000F1E02080F8141D7047BA
:101F200002E008C8121F08C1002AFAD170477047A2
:101F3000002001E001C1121F002AFBD1704710B53B
:101F40000021012000F092FA0021022000F08EFA18
:101F50000021032000F06AFA0021042000F086FA34
:101F60000021052000F03EFA0021062000F07EFA54
:101F70000021072000F07AFA0021082000F032FA50
:101F80000021092000F052FA00210A2000F06EFA28
:101F900000210B2000F06AFA00210C2000F066FA04
:101FA00000210D2000F062FA00210E2000F03EFA20
:101FB00000210F2000F03AFA0021102000F056FA1C
:101FC0000021112000F052FA0021122000F04EFAF8
:101FD0000021132000F04AFA0021142000F046FAF4
:101FE0000021152000F0FEF90021BDE81040162068
:101FF00000F03CBA01780A02417811430A02817864
:10200000C078114340EA0120704700002DE9F84FE5
:102010003E49814601EB0905E87801243C4B0F2835
:102020002BD2DFE800F008181C20292C2E2A682A61
:102030002A2A2A2A6C001978002031B1012100F0E7
:10204000FBFAC2B20321002012E0002100F0F4FAF2
:10205000C2B21C70F6E7BDE8F84F00F079BA002272
:102060000321022004E0A879D87000220321084649
:10207000BDE8F84F00F08CBB5C70BDE8F88F9C7039
:10208000FBE768792979002640EA012730E000BFA4
:102090001E4809EB06010144087A497AAC1901EBA4
:1020A000002014F8068F1FFA80FBA078E17894F8DE
:1020B00001A001EB002080B2009000F0BCF80021EC
:1020C000144A05E012F811C0C44503D0491CC9B236
:1020D0008142F7D302EB41004178514504D1211DE3
:1020E0004046009A00F018F806EB0B00001D86B27F
:1020F000BE42CDD3C1E7BDE8F84FFFF720BFA879B6
:10210000E979BDE8F84F00F0E9BA0000400200208C
:10211000480100201C30000870B5831F00240125F1
:10212000112B12D2DFE803F00914111D262D343BC8
:102130001111424950575E6570000846114600F083
:10214000C3F90146062009E0284670BD204670BD4F
:102150000846114600F0B8F90146072000F086F95C
:102160004FE00846114600F0ADF90146092000F0A5
:102170005DF946E00846114600F0A6F901460A203E
:10218000ECE70846114600F09FF901460B20E5E711
:102190000846114600F098F901460C20DEE7084693
:1021A000114600F091F901460D20D7E70846114687
:1021B00000F08AF901461020D0E70846114600F0E9
:1021C00083F901461120C9E70846114600F07CF961
:1021D00001461220C2E70846114600F075F9014693
:1021E0001320BBE70846114600F06EF901461420A3
:1021F000B4E70846114600F063F90146152000F0E7
:10220000F1F80128A2D19FE70846114600F05CF9D9
:1022100001461620A2E70000034610B50020024642
:1022200006E000BF13F8014B521C2044C0B292B22A
:102230008A42F7D310BD16207047000086B00020F8
:102240000190029003900490FEF784FDFFF797FD44
:10225000FFF740FBFFF794FBFFF7B2FBFFF7D0FB64
:1022600050480068C16841F02001C16000F020FAC8
:10227000FFF766FD42F22020FFF76CFDFFF7F8FB49
:10228000FFF7DCFB002348A219461020FFF70AFCE9
:10229000002346A219462020FFF704FC002344A295
:1022A00019463020FFF7FEFB002342A219464020CA
:1022B000FFF7F8FB002340A219465020FFF7F2FB7E
:1022C00000233EA219466020FFF7ECFB10233CA23E
:1022D00003210020FFF7A7FC00233BA203216F206E
:1022E000FFF7E0FB102339A206210020FFF79BFC3B
:1022F000002339A206216F20FFF7D4FB374D384E5B
:10230000102400BF00F0ECF900F0E0F830B1012833
:102310000AD0022811D0032816D110E0082128463F
:10232000FEF7A2F9FA2005E008212846FEF79CF9FD
:1023300040F2DC50FEF77EF806E0012200E00022C9
:1023400008212846FEF798F901A8FFF7E7FC04AA40
:1023500003A901A8FFF7A8FC0398FDF7C4FF0246F4
:102360000223032150200094FFF728FC0498FDF776
:10237000BAFF02460223062150200094FFF71EFCFC
:1023800031460398FDF73AFFFDF7ADFF0146012006
:1023900000F06CF80498FDF7A6FF0146022000F05B
:1023A00065F8AFE700020020D6C70000C4DC0000DB
:1023B000CEC20000CAAA0000B6C80000BCC6000019
:1023C00054454D503A000000A1E6000048554D49E3
:1023D000444954593A000000A3A5000000080140F8
:1023E0000000204110B5104A0C460146127800202A
:1023F000012A14D000F020F9012100F01DF900217C
:1024000000F01AF9012100F017F954B15FF0010151
:1024100000F012F902460321072000F0B9F901206B
:1024200010BD0021F4E700005401002010B50E4A51
:102430000C46014612780020012A12D000F0FCF868
:10244000042100F0F9F8002100F0F6F8012100F075
:10245000F3F8214600F0F0F802460321072000F0CF
:1024600097F9012010BD00005401002010B5134A57
:102470000C46014612780020012A1DD000F0DCF83D
:10248000022100F0D9F8002100F0D6F8042100F074
:10249000D3F8210E00F0D0F8C4F3074100F0CCF8D7
:1024A000C4F3072100F0C8F8E1B200F0C5F8024615
:1024B0000321072000F06CF9012010BD5401002019
:1024C0000078704700787047FFF794BD01480078A6
:1024D000704700004B0100200349002008700246AD
:1024E0000321042000F054B94901002030B538B16F
:1024F00031B1884202D98C18844212D2002305E0FF
:10250000002030BDCD5CC5545B1C9BB29342F9D317
:1025100030BD8B1813F8014C8318521E03F8014C80
:1025200092B2002AF5D130BD0021002806D000E08B
:10253000491C10F8012B002AFAD1084670470246C0
:10254000012000E05043491EC9B2FBD27047000091
:1025500010B5002422A0FFF7E7FF82B220A1204699
:1025600000F05CF8C4B220A0FFF7DEFF82B21EA12B
:10257000204600F053F8C4B220A0FFF7D5FF82B286
:102580001EA1204600F04AF8C4B21EA0FFF7CCFFFF
:1025900082B21CA1204600F041F8C4B21BA0FFF794
:1025A000C3FF82B219A1204600F038F8C4B219A0C6
:1025B000FFF7BAFF82B217A1204600F02FF8C4B28D
:1025C00015A0FFF7B1FF82B213A1204600F026F854
:1025D000C2B20321BDE81040012000F0D9B80000CC
:1025E0007B2270223A2200006F636E6D6A64386746
:1025F000387862706B66306E00000000222C227604
:10260000223A2200312E302E30000000222C226D82
:10261000223A0000320000007D00000070B5044640
:10262000044815462044801DFFF760FF601980B202
:1026300070BD000076020020024A0244401C9171E5
:1026400080B27047760200200749D1E901329A42F0
:1026500008D00648824201D3173888608A6812F889
:10266000010B8A60704700004801002076020020BC
:102670000B4910B50B680B490A689C1A012C0DD048
:102680009A4202D9D31A172B08D2074B9A4202D387
:10269000A3F117020A6002F8010B0A6010BD0000E6
:1026A000500100204C01002076020020FFF798BB6B
:1026B0000649054808600649086006490020087078
:1026C0000549FF20087070475F0200204C01002080
:1026D00050010020540100204B01002070470000F1
:1026E0002DE9F0410024284E284D06E0FFF7ACFF0D
:1026F000014628883154401C288028881F2803D28E
:1027000000F068F80028F1D12888072839D328E09C
:10271000315D552901D0641C06E032195178AA298F
:10272000F9D1917811B1A41CA4B21AE011795379AE
:102730000902C91D19448FB2262F0CD8B84214DBE8
:10274000781E81B21046FFF767FD2744B91911F8CA
:10275000011C884201D0E41CE6E72046FFF756FC46
:10276000BCB22888001B0728D2DA2888001B020484
:10277000120C2A8005D03119BDE8F0410248FFF75C
:10278000B5BEBDE8F08100004002002044010020F9
:1027900070B50F4D55232B70AA236B70A970E8708C
:1027A000100A28716A71D21D94B2601E81B2284647
:1027B000FFF732FD291901F8010C002C07D003E0C6
:1027C0002878FFF773FF6D1C641EA4B2F8D270BDA9
:1027D000760200200448D0E90110814201D0012096
:1027E00070470020704700004801002000000000F2
:1027F00000000000002F0000000007000700001488
:102800007F147F1400242A7F2A1200626408132395
:1028100000364955225000000503000000001C222C
:102820004100000041221C000014083E081400086A
:10283000083E0808000000A060000008080808081A
:10284000000060600000002010080402003E5149B2
:10285000453E0000427F4000004261514946002150
:1028600041454B31001814127F100027454545396A
:10287000003C4A49493000017109050300364949C5
:10288000493600064949291E00003636000000007E
:1028900056360000000814224100001414141414C9
:1028A0000000412214080002015109060032495972
:1028B000513E007C1211127C007F49494936003E8E
:1028C00041414122007F4141221C007F4949494149
:1028D000007F09090901003E4149497A007F080843
:1028E000087F0000417F4100002040413F01007F00
:1028F00008142241007F40404040007F020C027FCC
:10290000007F0408107F003E4141413E007F0909DD
:102910000906003E4151215E007F09192946004603
:10292000494949310001017F0101003F4040403FDA
:10293000001F2040201F003F4038403F0063140824
:1029400014630007087008070061514945430000FF
:102950007F41410000552A552A55000041417F0022
:102960000004020102040040404040400000010217
:102970000400002054545478007F48444438003800
:102980004444442000384444487F00385454541888
:1029900000087E0901020018A4A4A47C007F08049A
:1029A00004780000447D4000004080847D00007F6A
:1029B000102844000000417F4000007C0418047887
:1029C000007C0804047800384444443800FC242483
:1029D00024180018242418FC007C0804040800486B
:1029E0005454542000043F444020003C4040207C8C
:1029F000001C2040201C003C4030403C004428107B
:102A00002844001CA0A0A07C004464544C4414142E
:102A10001414141400000000000000000000000066
:102A200000000000000000F800000000000000337B
:102A30003000000000100C06100C06000000000022
:102A40000000000040C07840C0784000043F04040B
:102A50003F040400007088FC08300000001820FFCC
:102A6000211E0000F008F000E018000000211C0307
:102A70001E211E0000F00888700000001E21232483
:102A80001927211010160E000000000000000000A1
:102A900000000000000000E0180402000000000731
:102AA0001820400000020418E00000000040201838
:102AB00007000000404080F0804040000202010F0B
:102AC00001020200000000F0000000000101011FEF
:102AD00001010100000000000000000080B0700053
:102AE00000000000000000000000000000010101E3
:102AF0000101010100000000000000000030300072
:102B0000000000000000000080601804006018064B
:102B10000100000000E010080810E000000F102085
:102B200020100F00001010F8000000000020203FCF
:102B30002020000000700808088870000030282459
:102B400022213000003008888848300000182020FA
:102B500020110E000000C02010F80000000704241F
:102B6000243F240000F80888880808000019212064
:102B700020110E0000E0108888180000000F1120BE
:102B800020110E0000380808C83808000000003F77
:102B9000000000000070880808887000001C2221D6
:102BA00021221C0000E010080810E0000000312283
:102BB00022110F00000000C0C00000000000003023
:102BC0003000000000000080000000000000806075
:102BD00000000000000080402010080000010204F6
:102BE00008102000404040404040400004040404DD
:102BF0000404040000081020408000000020100899
:102C000004020100007048080808F00000000030CD
:102C100036010000C030C828E810E000071827245B
:102C200023140B000000C038E0000000203C230209
:102C30000227382008F8888888700000203F20206C
:102C400020110E00C030080808083800071820209E
:102C50002010080008F808080810E000203F202095
:102C600020100F0008F88888E8081000203F202076
:102C70002320180008F88888E8081000203F20006A
:102C800003000000C03008080838000007182020A2
:102C9000221E020008F808000008F808203F210161
:102CA00001213F20000808F8080800000020203F0C
:102CB0002020000000000808F8080800C08080807C
:102CC0007F00000008F888C028180800203F200175
:102CD0002638200008F8080000000000203F2020CF
:102CE0002020300008F8F800F8F80800203F003FE6
:102CF000003F200008F830C00008F808203F2000FE
:102D000007183F00E01008080810E0000F1020200E
:102D100020100F0008F808080808F000203F2101E3
:102D200001010000E01008080810E0000F1824243A
:102D300038504F0008F8888888887000203F2000AD
:102D4000030C302000708808080838000038202163
:102D500021221C00180808F8080818000000203F6D
:102D60002000000008F808000008F808001F2020D4
:102D700020201F000878880000C8380800000738A5
:102D80000E010000F80800F80008F800033C0700F6
:102D9000073C0300081868808068180820302C035E
:102DA000032C30200838C800C83808000000203F35
:102DB0002000000010080808C83808002038262124
:102DC00020201800000000FE020202000000007F28
:102DD00040404000000C30C0000000000000000136
:102DE0000638C00000020202FE0000000040404021
:102DF0007F00000000000402020204000000000046
:102E000000000000000000000000000080808080C2
:102E100080808080000202040000000000000000AA
:102E20000000000000008080808000000019242243
:102E300022223F2008F8008080000000003F11207F
:102E400020110E000000008080800000000E112084
:102E500020201100000000808088F800000E112062
:102E600020103F200000808080800000001F222270
:102E700022221300008080F0888888180020203FDC
:102E8000202000000000808080808000006B9494EF
:102E90009493600008F8008080800000203F2100AB
:102EA00000203F2000809898000000000020203F74
:102EB00020200000000000809898000000C0808062
:102EC000807F000008F8000080808000203F2402FE
:102ED0002D302000000808F8000000000020203FEE
:102EE000202000008080808080808000203F2000A3
:102EF0003F20003F8080008080800000203F210034
:102F000000203F200000808080800000001F2020E3
:102F100020201F00808000808000000080FFA12012
:102F200020110E000000008080808000000E112023
:102F300020A0FF80808080008080800020203F21B2
:102F40002000010000008080808080000033242465
:102F500024241900008080E0808000000000001F11
:102F6000202000008080000000808000001F2020C2
:102F700020103F20808080000080808000010E3083
:102F80000806010080800080008080800F300C03E4
:102F90000C300F0000808000808080000020312EE7
:102FA0000E312000808080000080808080818E70C3
:102FB0001806010000808080808080000021302C75
:102FC0002221300000000000807C0202000000008E
:102FD000003F404000000000FF0000000000000033
:102FE000FF0000000002027C800000000040403F23
:102FF00000000000000601010202040400000000BD
:1030000000000000000000000000000001020304B6
:103010000607080900000000010203040102020281
:1030200003040402050106020702080109040A025A
:103030000B020C020D020E040F0410021102120208
:103040001302140215011602683000080000002067
:1030500058010000A00300087C310008580100203E
:1030600058050000301F000814E699BA400E2038B9
:10307000AEEA78A8A82808F88888F8300C0301FE82
:103080004A4A4B4B4B4AFEFE14E883BD300F20B832
:10309000ACA6A8B8B0207E504848446017FF121272
:1030A000527F7F177F4C4444426014E6B8A9242025
:1030B000444C2BFC940142FC1809603C46407E4283
:1030C000427E0214427E4014E6B9BF5D40C48808C7
:1030D000233924100F603804404658407E40407E1B
:1030E00050584624E5BAA62808F8084848F8484E3B
:1030F000052A4823123F100C84444D5D3525554D5B
:103100004440C014E8AEA12E4044CC1840012AFE31
:1031100005412D7F301808075114E28483140C12E6
:103120000C1DC0701008017310301D0F18302001E5
:1031300023301C24EFBC8516F0880898702E80C0C0
:103140004020103D11200D2031190C0603011C32C6
:1031500022221E12AE100C1040B081FFA1A6A83F83
:10316000C8D3100ED580D805D9F1DA12D8308D1415
:0C317000AF32018210031524F4000000AF
:04000005080000ED02
:00000001FF
